{
    "_format": "hh-sol-artifact-1",
    "contractName": "Lens",
    "sourceName": "contracts/Lens.sol",
    "abi": [
        {
            "inputs": [
                {
                    "internalType": "address payable",
                    "name": "_master",
                    "type": "address"
                }
            ],
            "payable": false,
            "stateMutability": "nonpayable",
            "type": "constructor"
        },
        {
            "constant": true,
            "inputs": [],
            "name": "currentReward",
            "outputs": [
                {
                    "internalType": "uint256",
                    "name": "",
                    "type": "uint256"
                }
            ],
            "payable": false,
            "stateMutability": "view",
            "type": "function"
        },
        {
            "constant": true,
            "inputs": [
                {
                    "internalType": "uint256",
                    "name": "_requestId",
                    "type": "uint256"
                }
            ],
            "name": "getCurrentValue",
            "outputs": [
                {
                    "internalType": "bool",
                    "name": "ifRetrieve",
                    "type": "bool"
                },
                {
                    "internalType": "uint256",
                    "name": "value",
                    "type": "uint256"
                },
                {
                    "internalType": "uint256",
                    "name": "_timestampRetrieved",
                    "type": "uint256"
                }
            ],
            "payable": false,
            "stateMutability": "view",
            "type": "function"
        },
        {
            "constant": true,
            "inputs": [
                {
                    "internalType": "uint256",
                    "name": "_requestId",
                    "type": "uint256"
                },
                {
                    "internalType": "uint256",
                    "name": "_timestamp",
                    "type": "uint256"
                }
            ],
            "name": "getDataBefore",
            "outputs": [
                {
                    "internalType": "bool",
                    "name": "_ifRetrieve",
                    "type": "bool"
                },
                {
                    "internalType": "uint256",
                    "name": "_value",
                    "type": "uint256"
                },
                {
                    "internalType": "uint256",
                    "name": "_timestampRetrieved",
                    "type": "uint256"
                }
            ],
            "payable": false,
            "stateMutability": "view",
            "type": "function"
        },
        {
            "constant": true,
            "inputs": [
                {
                    "internalType": "uint256",
                    "name": "_requestId",
                    "type": "uint256"
                },
                {
                    "internalType": "uint256",
                    "name": "_timestamp",
                    "type": "uint256"
                }
            ],
            "name": "getIndexForDataBefore",
            "outputs": [
                {
                    "internalType": "bool",
                    "name": "found",
                    "type": "bool"
                },
                {
                    "internalType": "uint256",
                    "name": "index",
                    "type": "uint256"
                }
            ],
            "payable": false,
            "stateMutability": "view",
            "type": "function"
        },
        {
            "constant": true,
            "inputs": [
                {
                    "internalType": "uint256",
                    "name": "requestID",
                    "type": "uint256"
                },
                {
                    "internalType": "uint256",
                    "name": "count",
                    "type": "uint256"
                }
            ],
            "name": "getLastNewValues",
            "outputs": [
                {
                    "components": [
                        {
                            "internalType": "uint256",
                            "name": "timestamp",
                            "type": "uint256"
                        },
                        {
                            "internalType": "uint256",
                            "name": "value",
                            "type": "uint256"
                        }
                    ],
                    "internalType": "struct Lens.value[]",
                    "name": "",
                    "type": "tuple[]"
                }
            ],
            "payable": false,
            "stateMutability": "view",
            "type": "function"
        },
        {
            "constant": true,
            "inputs": [
                {
                    "internalType": "uint256",
                    "name": "_requestId",
                    "type": "uint256"
                }
            ],
            "name": "getNewValueCountbyRequestId",
            "outputs": [
                {
                    "internalType": "uint256",
                    "name": "",
                    "type": "uint256"
                }
            ],
            "payable": false,
            "stateMutability": "view",
            "type": "function"
        },
        {
            "constant": true,
            "inputs": [
                {
                    "internalType": "uint256",
                    "name": "_requestId",
                    "type": "uint256"
                },
                {
                    "internalType": "uint256",
                    "name": "_index",
                    "type": "uint256"
                }
            ],
            "name": "getTimestampbyRequestIDandIndex",
            "outputs": [
                {
                    "internalType": "uint256",
                    "name": "",
                    "type": "uint256"
                }
            ],
            "payable": false,
            "stateMutability": "view",
            "type": "function"
        },
        {
            "constant": true,
            "inputs": [
                {
                    "internalType": "uint256",
                    "name": "_requestId",
                    "type": "uint256"
                },
                {
                    "internalType": "uint256",
                    "name": "_timestamp",
                    "type": "uint256"
                }
            ],
            "name": "isInDispute",
            "outputs": [
                {
                    "internalType": "bool",
                    "name": "",
                    "type": "bool"
                }
            ],
            "payable": false,
            "stateMutability": "view",
            "type": "function"
        },
        {
            "constant": true,
            "inputs": [
                {
                    "internalType": "uint256",
                    "name": "_requestId",
                    "type": "uint256"
                },
                {
                    "internalType": "uint256",
                    "name": "_timestamp",
                    "type": "uint256"
                }
            ],
            "name": "retrieveData",
            "outputs": [
                {
                    "internalType": "uint256",
                    "name": "",
                    "type": "uint256"
                }
            ],
            "payable": false,
            "stateMutability": "view",
            "type": "function"
        },
        {
            "constant": true,
            "inputs": [],
            "name": "tellor",
            "outputs": [
                {
                    "internalType": "contract TellorMaster",
                    "name": "",
                    "type": "address"
                }
            ],
            "payable": false,
            "stateMutability": "view",
            "type": "function"
        },
        {
            "constant": true,
            "inputs": [],
            "name": "timeOfLastNewValue",
            "outputs": [
                {
                    "internalType": "uint256",
                    "name": "",
                    "type": "uint256"
                }
            ],
            "payable": false,
            "stateMutability": "view",
            "type": "function"
        },
        {
            "constant": true,
            "inputs": [
                {
                    "internalType": "uint256",
                    "name": "requestID",
                    "type": "uint256"
                }
            ],
            "name": "totalTip",
            "outputs": [
                {
                    "internalType": "uint256",
                    "name": "",
                    "type": "uint256"
                }
            ],
            "payable": false,
            "stateMutability": "view",
            "type": "function"
        }
    ],
    "bytecode": "0x60806040523480156200001157600080fd5b5060405162001c4738038062001c478339818101604052620000379190810190620000d8565b80806000806101000a81548173ffffffffffffffffffffffffffffffffffffffff021916908373ffffffffffffffffffffffffffffffffffffffff1602179055505080600160006101000a81548173ffffffffffffffffffffffffffffffffffffffff021916908373ffffffffffffffffffffffffffffffffffffffff1602179055505062000152565b600081519050620000d28162000138565b92915050565b600060208284031215620000eb57600080fd5b6000620000fb84828501620000c1565b91505092915050565b6000620001118262000118565b9050919050565b600073ffffffffffffffffffffffffffffffffffffffff82169050919050565b620001438162000104565b81146200014f57600080fd5b50565b611ae580620001626000396000f3fe608060405234801561001057600080fd5b50600436106100b45760003560e01c80635b026f61116100715780635b026f61146101b757806366b44611146101e75780636fd4f2291461021957806377fbb6631461023757806393fa491514610267578063b73e497914610297576100b4565b806307621eca146100b95780631959ad5b146100d75780633df0777b146100f55780633fcad9641461012557806344b12aea1461015757806346eee1c414610187575b600080fd5b6100c16102c8565b6040516100ce919061195f565b60405180910390f35b6100df610484565b6040516100ec9190611944565b60405180910390f35b61010f600480360361010a9190810190611661565b6104aa565b60405161011c91906118ae565b60405180910390f35b61013f600480360361013a919081019061160f565b610560565b60405161014e939291906118f2565b60405180910390f35b610171600480360361016c919081019061160f565b6107a8565b60405161017e919061195f565b60405180910390f35b6101a1600480360361019c919081019061160f565b610871565b6040516101ae919061195f565b60405180910390f35b6101d160048036036101cc9190810190611661565b610924565b6040516101de919061188c565b60405180910390f35b61020160048036036101fc9190810190611661565b610bd9565b604051610210939291906118f2565b60405180910390f35b610221610da1565b60405161022e919061195f565b60405180910390f35b610251600480360361024c9190810190611661565b610e66565b60405161025e919061195f565b60405180910390f35b610281600480360361027c9190810190611661565b610f1c565b60405161028e919061195f565b60405180910390f35b6102b160048036036102ac9190810190611661565b610fd2565b6040516102bf9291906118c9565b60405180910390f35b600080600160009054906101000a900473ffffffffffffffffffffffffffffffffffffffff1673ffffffffffffffffffffffffffffffffffffffff1663612c8f7f60405161031590611862565b60405180910390206040518263ffffffff1660e01b81526004016103399190611929565b60206040518083038186803b15801561035157600080fd5b505afa158015610365573d6000803e3d6000fd5b505050506040513d601f19601f820116820180604052506103899190810190611638565b420390506000670de0b6b3a76400009050600061012c828402816103a957fe5b0490506000600a600160009054906101000a900473ffffffffffffffffffffffffffffffffffffffff1673ffffffffffffffffffffffffffffffffffffffff1663612c8f7f6040516103fa90611877565b60405180910390206040518263ffffffff1660e01b815260040161041e9190611929565b60206040518083038186803b15801561043657600080fd5b505afa15801561044a573d6000803e3d6000fd5b505050506040513d601f19601f8201168201806040525061046e9190810190611638565b8161047557fe5b04905080820194505050505090565b600160009054906101000a900473ffffffffffffffffffffffffffffffffffffffff1681565b60008060009054906101000a900473ffffffffffffffffffffffffffffffffffffffff1673ffffffffffffffffffffffffffffffffffffffff16633df0777b84846040518363ffffffff1660e01b81526004016105089291906119a3565b60206040518083038186803b15801561052057600080fd5b505afa158015610534573d6000803e3d6000fd5b505050506040513d601f19601f8201168201806040525061055891908101906115e6565b905092915050565b6000806000806000809054906101000a900473ffffffffffffffffffffffffffffffffffffffff1673ffffffffffffffffffffffffffffffffffffffff166346eee1c4866040518263ffffffff1660e01b81526004016105c0919061195f565b60206040518083038186803b1580156105d857600080fd5b505afa1580156105ec573d6000803e3d6000fd5b505050506040513d601f19601f820116820180604052506106109190810190611638565b905060008060009054906101000a900473ffffffffffffffffffffffffffffffffffffffff1673ffffffffffffffffffffffffffffffffffffffff166377fbb66387600185036040518363ffffffff1660e01b81526004016106739291906119a3565b60206040518083038186803b15801561068b57600080fd5b505afa15801561069f573d6000803e3d6000fd5b505050506040513d601f19601f820116820180604052506106c39190810190611638565b905060008060009054906101000a900473ffffffffffffffffffffffffffffffffffffffff1673ffffffffffffffffffffffffffffffffffffffff166393fa491588846040518363ffffffff1660e01b81526004016107239291906119a3565b60206040518083038186803b15801561073b57600080fd5b505afa15801561074f573d6000803e3d6000fd5b505050506040513d601f19601f820116820180604052506107739190810190611638565b9050600081111561079057600181839550955095505050506107a1565b600080838191509550955095505050505b9193909250565b6000600160009054906101000a900473ffffffffffffffffffffffffffffffffffffffff1673ffffffffffffffffffffffffffffffffffffffff1663e0ae93c1836040516107f59061184d565b60405180910390206040518363ffffffff1660e01b815260040161081a92919061197a565b60206040518083038186803b15801561083257600080fd5b505afa158015610846573d6000803e3d6000fd5b505050506040513d601f19601f8201168201806040525061086a9190810190611638565b9050919050565b60008060009054906101000a900473ffffffffffffffffffffffffffffffffffffffff1673ffffffffffffffffffffffffffffffffffffffff166346eee1c4836040518263ffffffff1660e01b81526004016108cd919061195f565b60206040518083038186803b1580156108e557600080fd5b505afa1580156108f9573d6000803e3d6000fd5b505050506040513d601f19601f8201168201806040525061091d9190810190611638565b9050919050565b60606000600160009054906101000a900473ffffffffffffffffffffffffffffffffffffffff1673ffffffffffffffffffffffffffffffffffffffff166346eee1c4856040518263ffffffff1660e01b8152600401610983919061195f565b60206040518083038186803b15801561099b57600080fd5b505afa1580156109af573d6000803e3d6000fd5b505050506040513d601f19601f820116820180604052506109d39190810190611638565b9050606083604051908082528060200260200182016040528015610a1157816020015b6109fe61158d565b8152602001906001900390816109f65790505b509050610a1d826114cb565b60008090505b84811015610bcd576000600160009054906101000a900473ffffffffffffffffffffffffffffffffffffffff1673ffffffffffffffffffffffffffffffffffffffff166377fbb663886001858803036040518363ffffffff1660e01b8152600401610a8f9291906119a3565b60206040518083038186803b158015610aa757600080fd5b505afa158015610abb573d6000803e3d6000fd5b505050506040513d601f19601f82011682018060405250610adf9190810190611638565b90506000600160009054906101000a900473ffffffffffffffffffffffffffffffffffffffff1673ffffffffffffffffffffffffffffffffffffffff166393fa491589846040518363ffffffff1660e01b8152600401610b409291906119a3565b60206040518083038186803b158015610b5857600080fd5b505afa158015610b6c573d6000803e3d6000fd5b505050506040513d601f19601f82011682018060405250610b909190810190611638565b9050604051806040016040528083815260200182815250848481518110610bb357fe5b602002602001018190525050508080600101915050610a23565b50809250505092915050565b6000806000806000610beb8787610fd2565b9150915081610c0c5760008060008191508090509450945094505050610d9a565b60008060009054906101000a900473ffffffffffffffffffffffffffffffffffffffff1673ffffffffffffffffffffffffffffffffffffffff166377fbb66389846040518363ffffffff1660e01b8152600401610c6a9291906119a3565b60206040518083038186803b158015610c8257600080fd5b505afa158015610c96573d6000803e3d6000fd5b505050506040513d601f19601f82011682018060405250610cba9190810190611638565b90506000809054906101000a900473ffffffffffffffffffffffffffffffffffffffff1673ffffffffffffffffffffffffffffffffffffffff166393fa491589836040518363ffffffff1660e01b8152600401610d189291906119a3565b60206040518083038186803b158015610d3057600080fd5b505afa158015610d44573d6000803e3d6000fd5b505050506040513d601f19601f82011682018060405250610d689190810190611638565b94506000851115610d855760018582955095509550505050610d9a565b60008060008191508090509550955095505050505b9250925092565b6000600160009054906101000a900473ffffffffffffffffffffffffffffffffffffffff1673ffffffffffffffffffffffffffffffffffffffff1663612c8f7f604051610ded90611862565b60405180910390206040518263ffffffff1660e01b8152600401610e119190611929565b60206040518083038186803b158015610e2957600080fd5b505afa158015610e3d573d6000803e3d6000fd5b505050506040513d601f19601f82011682018060405250610e619190810190611638565b905090565b60008060009054906101000a900473ffffffffffffffffffffffffffffffffffffffff1673ffffffffffffffffffffffffffffffffffffffff166377fbb66384846040518363ffffffff1660e01b8152600401610ec49291906119a3565b60206040518083038186803b158015610edc57600080fd5b505afa158015610ef0573d6000803e3d6000fd5b505050506040513d601f19601f82011682018060405250610f149190810190611638565b905092915050565b60008060009054906101000a900473ffffffffffffffffffffffffffffffffffffffff1673ffffffffffffffffffffffffffffffffffffffff166393fa491584846040518363ffffffff1660e01b8152600401610f7a9291906119a3565b60206040518083038186803b158015610f9257600080fd5b505afa158015610fa6573d6000803e3d6000fd5b505050506040513d601f19601f82011682018060405250610fca9190810190611638565b905092915050565b60008060008060009054906101000a900473ffffffffffffffffffffffffffffffffffffffff1673ffffffffffffffffffffffffffffffffffffffff166346eee1c4866040518263ffffffff1660e01b8152600401611031919061195f565b60206040518083038186803b15801561104957600080fd5b505afa15801561105d573d6000803e3d6000fd5b505050506040513d601f19601f820116820180604052506110819190810190611638565b905060008111156114b85760008060009050600060018403905060008060009054906101000a900473ffffffffffffffffffffffffffffffffffffffff1673ffffffffffffffffffffffffffffffffffffffff166377fbb6638a856040518363ffffffff1660e01b81526004016110f99291906119a3565b60206040518083038186803b15801561111157600080fd5b505afa158015611125573d6000803e3d6000fd5b505050506040513d601f19601f820116820180604052506111499190810190611638565b9050878110611166576000808090509650965050505050506114c4565b6000809054906101000a900473ffffffffffffffffffffffffffffffffffffffff1673ffffffffffffffffffffffffffffffffffffffff166377fbb6638a846040518363ffffffff1660e01b81526004016111c29291906119a3565b60206040518083038186803b1580156111da57600080fd5b505afa1580156111ee573d6000803e3d6000fd5b505050506040513d601f19601f820116820180604052506112129190810190611638565b90508781101561122d576001829650965050505050506114c4565b5b6001156114b35782600160028585038161124457fe5b04010193506000809054906101000a900473ffffffffffffffffffffffffffffffffffffffff1673ffffffffffffffffffffffffffffffffffffffff166377fbb6638a866040518363ffffffff1660e01b81526004016112a59291906119a3565b60206040518083038186803b1580156112bd57600080fd5b505afa1580156112d1573d6000803e3d6000fd5b505050506040513d601f19601f820116820180604052506112f59190810190611638565b9050878110156113d75760008060009054906101000a900473ffffffffffffffffffffffffffffffffffffffff1673ffffffffffffffffffffffffffffffffffffffff166377fbb6638b600188016040518363ffffffff1660e01b81526004016113609291906119a3565b60206040518083038186803b15801561137857600080fd5b505afa15801561138c573d6000803e3d6000fd5b505050506040513d601f19601f820116820180604052506113b09190810190611638565b90508881106113cb57600185975097505050505050506114c4565b600185019350506114ae565b60008060009054906101000a900473ffffffffffffffffffffffffffffffffffffffff1673ffffffffffffffffffffffffffffffffffffffff166377fbb6638b600188036040518363ffffffff1660e01b81526004016114389291906119a3565b60206040518083038186803b15801561145057600080fd5b505afa158015611464573d6000803e3d6000fd5b505050506040513d601f19601f820116820180604052506114889190810190611638565b9050888110156114a6576001808603975097505050505050506114c4565b600185039250505b61122e565b505050505b60008080905092509250505b9250929050565b611561816040516024016114df919061195f565b6040516020818303038152906040527ff5b1bba9000000000000000000000000000000000000000000000000000000007bffffffffffffffffffffffffffffffffffffffffffffffffffffffff19166020820180517bffffffffffffffffffffffffffffffffffffffffffffffffffffffff8381831617835250505050611564565b50565b60008151905060006a636f6e736f6c652e6c6f679050602083016000808483855afa5050505050565b604051806040016040528060008152602001600081525090565b6000815190506115b681611a74565b92915050565b6000813590506115cb81611a8b565b92915050565b6000815190506115e081611a8b565b92915050565b6000602082840312156115f857600080fd5b6000611606848285016115a7565b91505092915050565b60006020828403121561162157600080fd5b600061162f848285016115bc565b91505092915050565b60006020828403121561164a57600080fd5b6000611658848285016115d1565b91505092915050565b6000806040838503121561167457600080fd5b6000611682858286016115bc565b9250506020611693858286016115bc565b9150509250929050565b60006116a98383611800565b60408301905092915050565b60006116c0826119dc565b6116ca81856119f4565b93506116d5836119cc565b8060005b838110156117065781516116ed888261169d565b97506116f8836119e7565b9250506001810190506116d9565b5085935050505092915050565b61171c81611a10565b82525050565b61172b81611a1c565b82525050565b61173a81611a50565b82525050565b600061174d600883611a05565b91507f746f74616c5469700000000000000000000000000000000000000000000000006000830152600882019050919050565b600061178d601283611a05565b91507f74696d654f664c6173744e657756616c756500000000000000000000000000006000830152601282019050919050565b60006117cd601083611a05565b91507f63757272656e74546f74616c54697073000000000000000000000000000000006000830152601082019050919050565b604082016000820151611816600085018261182f565b506020820151611829602085018261182f565b50505050565b61183881611a46565b82525050565b61184781611a46565b82525050565b600061185882611740565b9150819050919050565b600061186d82611780565b9150819050919050565b6000611882826117c0565b9150819050919050565b600060208201905081810360008301526118a681846116b5565b905092915050565b60006020820190506118c36000830184611713565b92915050565b60006040820190506118de6000830185611713565b6118eb602083018461183e565b9392505050565b60006060820190506119076000830186611713565b611914602083018561183e565b611921604083018461183e565b949350505050565b600060208201905061193e6000830184611722565b92915050565b60006020820190506119596000830184611731565b92915050565b6000602082019050611974600083018461183e565b92915050565b600060408201905061198f600083018561183e565b61199c6020830184611722565b9392505050565b60006040820190506119b8600083018561183e565b6119c5602083018461183e565b9392505050565b6000819050602082019050919050565b600081519050919050565b6000602082019050919050565b600082825260208201905092915050565b600081905092915050565b60008115159050919050565b6000819050919050565b600073ffffffffffffffffffffffffffffffffffffffff82169050919050565b6000819050919050565b6000611a5b82611a62565b9050919050565b6000611a6d82611a26565b9050919050565b611a7d81611a10565b8114611a8857600080fd5b50565b611a9481611a46565b8114611a9f57600080fd5b5056fea365627a7a72315820eacd86fd6fadcdf9955bda3b6b039a3e1b94905f095d939e01f8ec1c06d080276c6578706572696d656e74616cf564736f6c63430005110040",
    "linkReferences": {},
    "deployedLinkReferences": {}
}